:100000000C9462000C94F9040C9426050C948A005C
:100010000C948A000C948A000C948A000C948A0038
:100020000C948A000C948A000C948A000C948A0028
:100030000C948A000C948A000C948A000C948A0018
:100040000C9453050C948A000C943F080C9471088E
:100050000C948A000C948A000C948A000C948A00F8
:100060000C948A000C948A00000000080002010031
:100070000003040700000000000000000102040863
:100080001020408001020408102001020408102002
:10009000040404040404040402020202020203032E
:1000A00003030303000000002300260029000000D2
:1000B0000000250028002B0000000000240027007D
:1000C0002A00A10811241FBECFEFD8E0DEBFCDBFAC
:1000D00011E0A0E0B1E0EEEFF3E102C005900D9277
:1000E000AA33B107D9F723E0AAE3B1E001C01D921A
:1000F000AB3DB207E1F710E0C4ECD0E004C02297BA
:10010000FE010E94F909C23CD107C9F70E94E50827
:100110000C94FD090C940000CF93C82F61E089E096
:100120000E94620661E0C11160E089E0CF910C9409
:100130009B06CF93DC01FB0190E020E08D918823AA
:10014000D9F030ED380F3A3018F4232B31E001C0EC
:1001500030E0CFEBC80FC63020F439EC380F232B3A
:1001600031E0CFE9C80FC63018F48755282B06C0F8
:10017000311104C0803211F3CF010AC0992361F01C
:10018000CF0101962083415051091416150644F001
:10019000861B970BCF9108952295207F91E0CECFBB
:1001A000FC01CACFCF93DF93EC01FC01EF2FFF27B7
:1001B000E295EF70E65EFE4F60818EE393E00E9471
:1001C0003209ED2FFF27E7FDFA95EF70FF27E65E76
:1001D000FE4F60818EE393E00E943209FE0124E02D
:1001E000F595E7952A95E1F7EF70FF27E65EFE4F5C
:1001F00060818EE393E00E943209CF70DD27C65EF6
:10020000DE4F68818EE393E0DF91CF910C945F091C
:1002100020913C0130913D01AC01B4E056954795E9
:10022000BA95E1F7813E6FE0960700F1F901EE0F14
:10023000FF1FE25CFE4F6FEF70E071836083F90196
:10024000EE0FFF1FE05CFE4F892F82958F70808339
:100250001182C901039690933D0180933C01F901FD
:10026000EE0FFF1FEE5BFE4F55270BC0C901019635
:1002700090933D0180933C01F901EE0FFF1FE25C7A
:10028000FE4F518340830895EF92FF920F931F9387
:10029000CF93DF931F92CDB7DEB78C0180913C01E5
:1002A00090913D01883C910534F065E68EE393E042
:1002B0000E945F0945C041E050E0BE016F5F7F4F83
:1002C000C80101960E949900E980F12CFE2CEE24D1
:1002D00041E050E0BE016F5F7F4FC80103960E946E
:1002E000990089819701280F311DC9010E940801D9
:1002F00041E050E0BE016F5F7F4FC80105960E944C
:100300009900E980F12CFE2CEE2441E050E0BE0182
:100310006F5F7F4FC80107960E94990089819701FE
:10032000280F311DC9010E9408016FE68EE393E09A
:100330000E94320980913C0190913D010E94D200BF
:100340000F90DF91CF911F910F91FF90EF90089543
:1003500067E071E08EE393E00C944D0910923D014B
:1003600010923C016FE68EE393E00E943209809187
:100370003C0190913D010C94D200E0913A01F09142
:100380003B01DF01AA0FBB1FA25CBE4F8D919C9168
:100390008F3F910589F4CF01029690933B018093A2
:1003A0003A01EE0FFF1FE05CFE4F208180E090E0FD
:1003B000922F9295907F02C080E090E0E0913A0108
:1003C000F0913B019F012F5F3F4F30933B01209302
:1003D0003A01EE0FFF1FE25CFE4F2081318144E0C5
:1003E000220F331F4A95E1F7820F931F0895DF9282
:1003F000EF92FF920F931F93CF93DF9300D000D023
:10040000CDB7DEB78C011C821B821A821982109232
:100410003B0110923A0141E050E0BE016C5F7F4F1A
:1004200001960E949900F80183818823F9F041E048
:1004300050E0BE016D5F7F4FC80103960E94990096
:1004400041E050E0BE016E5F7F4FC80105960E94FB
:100450009900F8018781882349F041E050E0BE010E
:100460006F5F7F4FC80107960E949900E12CD12C45
:10047000F12C8C81F816B8F5E0923A01D0923B014C
:1004800000E010E080913A0190913B0120913C0105
:1004900030913D018217930720F5F11007C02981A3
:1004A00030E00217130711F4E82ED92E81E00E94E4
:1004B000C00481E00E948C000E94BD018B549F4FBC
:1004C0000E94F40580E00E94C00480E00E948C003D
:1004D0000E94BD01855B91090E94F4050E5F1F4FCC
:1004E000D1CFF394C6CF6FE68EE393E00E9432093A
:1004F00080913A0190913B010E94D2000F900F90A1
:100500000F900F90DF91CF911F910F91FF90EF907F
:10051000DF90089526E040E052EC61E070E08EE369
:1005200093E00E94DD0781E00E948C0020E436E029
:1005300044ED61E080E00E94430464E670E080E006
:1005400090E00E94CC0580E00E948C0068EC70E096
:1005500080E090E00E94CC0581E00E948C0064E67F
:1005600070E080E090E00E94CC0580E00E948C006A
:1005700068EC70E080E090E00E94CC0581E00E9491
:100580008C0064E670E080E090E00E94CC0580E0A2
:100590000E948C000C94A8018EE393E00E94FA065E
:1005A000892BD1F324E130E04EEC52E06AE08EE397
:1005B00093E00E949F09E82FFF27E7FDF095E253A3
:1005C000FD4F10820895CF930E94CC02C82F81E086
:1005D0000E948C009091CE02913439F4C930D4F04D
:1005E0008EEC92E00E9444011BC0933539F41C1636
:1005F0008CF48EEC92E00E94F70112C0953429F43D
:100600008EEC92E00E94AE010BC0963519F40E9468
:10061000A80106C068E171E08EE393E00E944D09F5
:100620008EE393E00E94560780E0CF910C948C00FB
:100630008627682F62956827062E66956695602541
:10064000062E669560256770082E892F669507949B
:100650006795902D8627069467959025862708959F
:100660002CB521602CBD25B141E050E060E070E088
:100670000090060104C0440F551F661F771F0A949F
:10068000D2F74095422345B99EBD0DB407FEFDCF7C
:100690002EB530E0322F22278EBD0DB407FEFDCFE0
:1006A0009EB585B141E050E060E070E00090060149
:1006B00004C0440F551F661F771F0A94D2F7842B7E
:1006C00085B98CB58E7F8CBDA901492BCA010895CF
:1006D000CF9380E090E00E94300380912B0385301F
:1006E00091F580E090EB0E943003682F80912C03FD
:1006F000811104C090912F03911174C0E0912C03DB
:1007000081E08E0F80932C03F0E0EE51FD4F60836B
:100710008091290390912A030E94180390932A0341
:10072000809329038091E40220912C0390E00496A9
:1007300030E0821793070CF460C080912C0387345B
:1007400008F05BC05FC080912B0387FF1AC0E09167
:10075000E40280912B0391E0980F90932B03ED5FBF
:10076000E80FF0E0EE51FD4FC08180912903909198
:100770002A036C2F0E94180390932A038093290365
:100780002DC080912B0391E0980F90932B03833021
:1007900001F154F48823B9F08130F9F480912903F0
:1007A00090912A03C92F1AC0893059F08A30A9F4D0
:1007B000C0912F039091E4028EEF891B80932B034D
:1007C0000DC0CDE20BC08091290390912A03C82F60
:1007D00005C08DE092E80E943003CAEA8C2F90E0B9
:1007E00098540DC0E0912C0381E08E0F80932C0370
:1007F000F0E0EE51FD4F908381CF8DE092E8CF91F4
:100800000C943003CF91089525B181E090E0A0E0F1
:10081000B0E0AC01BD010090060104C0440F551FBB
:10082000661F771F0A94D2F7242B25B924B10090B4
:10083000060104C0880F991FAA1FBB1F0A94D2F794
:10084000282B24B961E08AE00E949B0661E08AE0DF
:100850000E94620661E08BE00E94620660E08CE02C
:100860000E94620661E08DE00E94620680E58CBD18
:100870008DB581608DBD60E082E00E94620661E01E
:1008800082E00C949B06CF93C62F80933003409355
:100890002F0330932E0320932D030E94040480E045
:1008A00090E00E94300385E092E80E94300380E0EF
:1008B00098EB0E94300382E00E94D106892B19F444
:1008C00080E090E0F6CF20E1C29FC0011124876C48
:1008D00090680E94300380912D0390912E039056D2
:1008E0000E94300386E096EC0E94300382EA94E98D
:1008F0000E9430038CEA92EC0E943003C0912F03D7
:10090000CC2341F083E89AEC0E9430038C2F90E0D6
:100910009E6C06C08BE89AEC0E9430038DE29EEC40
:100920000E94300383E894EC0E94300380E598E94C
:100930000E94300387E79CEC0E94300380E090EE39
:100940000E94300380E098EC0E94300389E490EC30
:100950000E94300384E080932B03809130038F71D9
:1009600041F040E050E068E673E080E00E94C90496
:1009700003C080E00E94E90480913003CF91089584
:10098000882319F08DE392E802C08DE092E80C9480
:1009900030038230E8F4E82FF0E0EE0FFF1FEF5C49
:1009A000FC4F71836083813041F0809169008C7FBE
:1009B000842B80936900E89A089580916900440F20
:1009C000551F440F551F837F842B80936900E99A3C
:1009D0000895823068F4813011F0E89801C0E998F8
:1009E000E82FF0E0EE0FFF1FEF5CFC4F118210824A
:1009F00008951F920F920FB60F9211242F933F93D9
:100A00004F935F936F937F938F939F93AF93BF9316
:100A1000EF93FF938091310390913203892B29F05A
:100A2000E0913103F09132030995FF91EF91BF916D
:100A3000AF919F918F917F916F915F914F913F9176
:100A40002F910F900FBE0F901F9018951F920F922D
:100A50000FB60F9211242F933F934F935F936F9391
:100A60007F938F939F93AF93BF93EF93FF93809167
:100A7000330390913403892B29F0E0913303F091F3
:100A800034030995FF91EF91BF91AF919F918F91A1
:100A90007F916F915F914F913F912F910F900FBE7A
:100AA0000F901F9018951F920F920FB60F9211245E
:100AB0002F933F938F939F93AF93BF938091360370
:100AC00090913703A0913803B091390330913503E9
:100AD00023E0230F2D3720F40196A11DB11D05C081
:100AE00026E8230F0296A11DB11D209335038093A4
:100AF000360390933703A0933803B0933903809162
:100B00003A0390913B03A0913C03B0913D030196C1
:100B1000A11DB11D80933A0390933B03A0933C0326
:100B2000B0933D03BF91AF919F918F913F912F91D2
:100B30000F900FBE0F901F9018952FB7F8946091EB
:100B400036037091370380913803909139032FBF9A
:100B500008953FB7F89480913A0390913B03A09198
:100B60003C03B0913D0326B5A89B05C02F3F19F06B
:100B70000196A11DB11D3FBF6627782F892F9A2F9F
:100B8000620F711D811D911D42E0660F771F881F46
:100B9000991F4A95D1F70895CF92DF92EF92FF9275
:100BA000CF93DF936B017C010E94A905EB01C11477
:100BB000D104E104F10489F00E94D4090E94A9053E
:100BC0006C1B7D0B683E734090F381E0C81AD1081E
:100BD000E108F108C851DC4FEACFDF91CF91FF90D7
:100BE000EF90DF90CF900895019739F0880F991F0B
:100BF000880F991F02970197F1F70895789484B5AB
:100C0000826084BD84B5816084BD85B5826085BD08
:100C100085B5816085BDEEE6F0E0808181608083EE
:100C2000E1E8F0E0108280818260808380818160D1
:100C30008083E0E8F0E0808181608083E1EBF0E098
:100C4000808184608083E0EBF0E08081816080833C
:100C5000EAE7F0E080818460808380818260808325
:100C60008081816080838081806880831092C10050
:100C70000895833081F028F4813099F08230A1F01A
:100C800008958730A9F08830B9F08430D1F480918C
:100C900080008F7D03C0809180008F7780938000DB
:100CA000089584B58F7702C084B58F7D84BD089583
:100CB0008091B0008F7703C08091B0008F7D8093CA
:100CC000B0000895CF93DF9390E0FC01E458FF4F0C
:100CD0002491FC01E057FF4F8491882349F190E073
:100CE000880F991FFC01E854FF4FA591B4918255DC
:100CF0009F4FFC01C591D4919FB7611108C0F89432
:100D00008C91209582238C93888182230AC0623043
:100D100051F4F8948C91322F309583238C938881F1
:100D2000822B888304C0F8948C91822B8C939FBF74
:100D3000DF91CF9108950F931F93CF93DF931F926D
:100D4000CDB7DEB7282F30E0F901E859FF4F849185
:100D5000F901E458FF4F1491F901E057FF4F049156
:100D60000023C9F0882321F069830E943906698134
:100D7000E02FF0E0EE0FFF1FE255FF4FA591B49179
:100D80009FB7F8948C91611103C01095812301C025
:100D9000812B8C939FBF0F90DF91CF911F910F916B
:100DA0000895CF93DF93282F30E0F901E859FF4FE2
:100DB0008491F901E458FF4FD491F901E057FF4FB6
:100DC000C491CC2391F081110E943906EC2FF0E000
:100DD000EE0FFF1FEC55FF4FA591B4912C912D23E1
:100DE00081E090E021F480E002C080E090E0DF91BB
:100DF000CF910895FC01818D228D90E0805C9F4F02
:100E0000821B91098F7399270895FC01918D828D22
:100E1000981731F0828DE80FF11D858D90E00895CF
:100E20008FEF9FEF0895FC01918D828D981761F0EF
:100E3000828DDF01A80FB11D5D968C91928D9F5F11
:100E40009F73928F90E008958FEF9FEF089587E949
:100E500098E0892B49F080E090E0892B29F00E94EE
:100E6000970881110C9400000895FC01848DDF0126
:100E7000A80FB11DA35ABF4F2C91848D90E001960D
:100E80008F739927848FA689B7892C93A089B189FC
:100E90008C9180648C93938D848D981306C0028806
:100EA000F389E02D80818F7D80830895CF93DF9338
:100EB000EC01888D8823C9F0EA89FB89808185FD52
:100EC00005C0A889B9898C9186FD0FC00FB607FCB3
:100ED000F5CF808185FFF2CFA889B9898C9185FFF4
:100EE000EDCFCE010E943507E7CFDF91CF91089576
:100EF000CF92DF92FF920F931F93CF93DF931F92B6
:100F0000CDB7DEB76C01DC015B969C915B975C967C
:100F10008C915C97981307C05096ED91FC91519776
:100F2000808185FD32C0F601038D10E00F5F1F4FF9
:100F30000F731127F02EF601848DF81211C00FB631
:100F400007FCF9CFD6015096ED91FC915197808125
:100F500085FFF1CFC60169830E9435076981EBCF18
:100F6000838DE80FF11DE35AFF4F6083D6015B9636
:100F70000C935B975296ED91FC9153978081806220
:100F8000808381E058968C930DC0D6015696ED91E2
:100F9000FC91579760835096ED91FC915197808119
:100FA0008064808381E090E00F90DF91CF911F916A
:100FB0000F91FF90DF90CF900895BF92CF92DF9274
:100FC000EF92FF92CF93DF93EC016A017B01B22E87
:100FD000E889F98982E08083411581EE580761052F
:100FE0007105A1F060E079E08DE390E0A701960142
:100FF0000E94D5092150310941095109569547955B
:1010000037952795211580E1380798F0E889F98907
:10101000108260E874E88EE190E0A70196010E94DA
:10102000D509215031094109510956954795379500
:101030002795EC85FD853083EE85FF852083188E0E
:10104000EC89FD89B082EA89FB8980818061808397
:10105000EA89FB89808188608083EA89FB898081B5
:1010600080688083EA89FB8980818F7D8083DF911E
:10107000CF91FF90EF90DF90CF90BF9008951F9297
:101080000F920FB60F9211242F938F939F93EF938C
:10109000FF93E0914E03F0914F038081E091540360
:1010A000F091550382FD12C09081809157038F5FAC
:1010B0008F7320915803821751F0E0915703F0E0AD
:1010C000E25CFC4F958F8093570301C08081FF91B4
:1010D000EF919F918F912F910F900FBE0F901F90C6
:1010E00018951F920F920FB60F9211242F933F93D2
:1010F0004F935F936F937F938F939F93AF93BF9320
:10110000EF93FF938EE393E00E943507FF91EF91F9
:10111000BF91AF919F918F917F916F915F914F910F
:101120003F912F910F900FBE0F901F9018958EE357
:1011300093E00E94FA0621E0892B09F420E0822F37
:101140000895109241031092400388EE93E0A0E0CE
:10115000B0E08093420390934303A0934403B09381
:1011600045038EE291E090933F0380933E0385EC2C
:1011700090E090934B0380934A0384EC90E090932B
:101180004D0380934C0380EC90E090934F03809349
:101190004E0381EC90E0909351038093500382ECD6
:1011A00090E0909353038093520386EC90E09093E9
:1011B00055038093540310925703109258031092D2
:1011C000590310925A03089508950E94FE050E9443
:1011D000E4080E948A02C7E2D7E00E94E302209757
:1011E000E1F30E942707F9CFCF92DF92EF92FF92AF
:1011F0000F931F93CF93DF936C017A01EB01E60EFF
:10120000F71E00E010E0CE15DF0561F06991D60110
:10121000ED91FC910190F081E02DC6010995080F38
:10122000191FF1CFC801DF91CF911F910F91FF904E
:10123000EF90DF90CF9008956115710581F0DB018B
:101240000D900020E9F7AD0141505109461B570BA5
:10125000DC01ED91FC910280F381E02D099480E0A6
:1012600090E00895DC01ED91FC910190F081E02D7A
:1012700009940F931F93CF93DF93EC016DE00E94CD
:1012800032098C016AE0CE010E943209800F911F61
:10129000DF91CF911F910F9108950F931F93CF93DB
:1012A000DF93EC010E941C098C01CE010E943909D8
:1012B000800F911FDF91CF911F910F9108950F9390
:1012C0001F93CF93DF93EC010E9432098C01CE0172
:1012D0000E943909800F911FDF91CF911F910F91CB
:1012E00008950F931F93CF93DF93EC010E949D0508
:1012F000688779878A879B87E881F9810680F781EB
:10130000E02DCE01099597FF15C00E949D05088527
:1013100019852A853B85601B710B820B930B0C8111
:101320001D812E813F81601771078207930720F38B
:101330008FEF9FEFDF91CF911F910F910895AF92A3
:10134000BF92CF92DF92EF92FF920F931F93CF93B2
:10135000DF936C01790121153105B9F08A01C0E0F4
:10136000D0E0A62EBB24A7FCB094C6010E94710950
:1013700097FD0EC08A159B0559F0F80181938F01E6
:101380002196CE15DF0589F703C080E090E001C00B
:10139000CE01DF91CF911F910F91FF90EF90DF90E1
:1013A000CF90BF90AF9008950895A1E21A2EAA1B86
:1013B000BB1BFD010DC0AA1FBB1FEE1FFF1FA21705
:1013C000B307E407F50720F0A21BB30BE40BF50B02
:1013D000661F771F881F991F1A9469F7609570958B
:1013E000809590959B01AC01BD01CF010895EE0F52
:0E13F000FF1F0590F491E02D0994F894FFCFB3
:1013FE000000DB03800002564F70656E4E65744828
:10140E006F6D6520302E3300650030313233343548
:10141E0036373839414243444546000000007807CC
:0A142E00F408FA0613070507560735
:00000001FF
